{
  "contractName": "Guai",
  "abi": [
    {
      "inputs": [
        {
          "internalType": "uint64",
          "name": "CaseID",
          "type": "uint64"
        },
        {
          "internalType": "bytes32",
          "name": "_hash1",
          "type": "bytes32"
        },
        {
          "internalType": "bytes32",
          "name": "_hash2",
          "type": "bytes32"
        }
      ],
      "name": "updateHash",
      "outputs": [],
      "stateMutability": "nonpayable",
      "type": "function"
    },
    {
      "inputs": [
        {
          "internalType": "uint64",
          "name": "CaseID",
          "type": "uint64"
        }
      ],
      "name": "getHash",
      "outputs": [
        {
          "internalType": "bytes",
          "name": "",
          "type": "bytes"
        }
      ],
      "stateMutability": "view",
      "type": "function",
      "constant": true
    },
    {
      "inputs": [
        {
          "internalType": "address",
          "name": "Address",
          "type": "address"
        },
        {
          "internalType": "uint256[]",
          "name": "_attributes",
          "type": "uint256[]"
        }
      ],
      "name": "setUserInfo",
      "outputs": [],
      "stateMutability": "nonpayable",
      "type": "function"
    },
    {
      "inputs": [
        {
          "internalType": "address",
          "name": "Address",
          "type": "address"
        }
      ],
      "name": "getUserInfo",
      "outputs": [
        {
          "internalType": "uint256[]",
          "name": "",
          "type": "uint256[]"
        }
      ],
      "stateMutability": "view",
      "type": "function",
      "constant": true
    },
    {
      "inputs": [
        {
          "internalType": "uint64",
          "name": "CaseID",
          "type": "uint64"
        },
        {
          "internalType": "string",
          "name": "_link",
          "type": "string"
        }
      ],
      "name": "setIPFSInfo",
      "outputs": [],
      "stateMutability": "nonpayable",
      "type": "function"
    },
    {
      "inputs": [
        {
          "internalType": "uint64",
          "name": "CaseID",
          "type": "uint64"
        }
      ],
      "name": "getIPFSInfo",
      "outputs": [
        {
          "internalType": "string",
          "name": "",
          "type": "string"
        }
      ],
      "stateMutability": "view",
      "type": "function",
      "constant": true
    }
  ],
  "bytecode": "0x608060405234801561001057600080fd5b50610c81806100206000396000f3fe608060405234801561001057600080fd5b50600436106100625760003560e01c80632fd0024f146100675780635a7c1033146100835780636386c1c71461009f5780637d9cc144146100cf57806388a50c09146100ff57806388e6b2701461012f575b600080fd5b610081600480360381019061007c919061075a565b61014b565b005b61009d6004803603810190610098919061082c565b6101a6565b005b6100b960048036038101906100b4919061087f565b610209565b6040516100c6919061096a565b60405180910390f35b6100e960048036038101906100e4919061098c565b6102a3565b6040516100f69190610a41565b60405180910390f35b6101196004803603810190610114919061098c565b61036c565b6040516101269190610ab8565b60405180910390f35b61014960048036038101906101449190610b8f565b610427565b005b80600160008473ffffffffffffffffffffffffffffffffffffffff1673ffffffffffffffffffffffffffffffffffffffff16815260200190815260200160002060000190805190602001906101a1929190610469565b505050565b81600260008567ffffffffffffffff1667ffffffffffffffff1681526020019081526020016000206000018190555080600260008567ffffffffffffffff1667ffffffffffffffff16815260200190815260200160002060010181905550505050565b6060600160008373ffffffffffffffffffffffffffffffffffffffff1673ffffffffffffffffffffffffffffffffffffffff16815260200190815260200160002060000180548060200260200160405190810160405280929190818152602001828054801561029757602002820191906000526020600020905b815481526020019060010190808311610283575b50505050509050919050565b60606000600260008467ffffffffffffffff1667ffffffffffffffff1681526020019081526020016000206000015490506000600260008567ffffffffffffffff1667ffffffffffffffff1681526020019081526020016000206001015490506000604067ffffffffffffffff8111156103205761031f6105e1565b5b6040519080825280601f01601f1916602001820160405280156103525781602001600182028036833780820191505090505b509050826020820152816040820152809350505050919050565b60606000808367ffffffffffffffff1667ffffffffffffffff16815260200190815260200160002060000180546103a290610c1a565b80601f01602080910402602001604051908101604052809291908181526020018280546103ce90610c1a565b801561041b5780601f106103f05761010080835404028352916020019161041b565b820191906000526020600020905b8154815290600101906020018083116103fe57829003601f168201915b50505050509050919050565b806000808467ffffffffffffffff1667ffffffffffffffff16815260200190815260200160002060000190805190602001906104649291906104b6565b505050565b8280548282559060005260206000209081019282156104a5579160200282015b828111156104a4578251825591602001919060010190610489565b5b5090506104b2919061053c565b5090565b8280546104c290610c1a565b90600052602060002090601f0160209004810192826104e4576000855561052b565b82601f106104fd57805160ff191683800117855561052b565b8280016001018555821561052b579182015b8281111561052a57825182559160200191906001019061050f565b5b509050610538919061053c565b5090565b5b8082111561055557600081600090555060010161053d565b5090565b6000604051905090565b600080fd5b600080fd5b600073ffffffffffffffffffffffffffffffffffffffff82169050919050565b60006105988261056d565b9050919050565b6105a88161058d565b81146105b357600080fd5b50565b6000813590506105c58161059f565b92915050565b600080fd5b6000601f19601f8301169050919050565b7f4e487b7100000000000000000000000000000000000000000000000000000000600052604160045260246000fd5b610619826105d0565b810181811067ffffffffffffffff82111715610638576106376105e1565b5b80604052505050565b600061064b610559565b90506106578282610610565b919050565b600067ffffffffffffffff821115610677576106766105e1565b5b602082029050602081019050919050565b600080fd5b6000819050919050565b6106a08161068d565b81146106ab57600080fd5b50565b6000813590506106bd81610697565b92915050565b60006106d66106d18461065c565b610641565b905080838252602082019050602084028301858111156106f9576106f8610688565b5b835b81811015610722578061070e88826106ae565b8452602084019350506020810190506106fb565b5050509392505050565b600082601f830112610741576107406105cb565b5b81356107518482602086016106c3565b91505092915050565b6000806040838503121561077157610770610563565b5b600061077f858286016105b6565b925050602083013567ffffffffffffffff8111156107a05761079f610568565b5b6107ac8582860161072c565b9150509250929050565b600067ffffffffffffffff82169050919050565b6107d3816107b6565b81146107de57600080fd5b50565b6000813590506107f0816107ca565b92915050565b6000819050919050565b610809816107f6565b811461081457600080fd5b50565b60008135905061082681610800565b92915050565b60008060006060848603121561084557610844610563565b5b6000610853868287016107e1565b935050602061086486828701610817565b925050604061087586828701610817565b9150509250925092565b60006020828403121561089557610894610563565b5b60006108a3848285016105b6565b91505092915050565b600081519050919050565b600082825260208201905092915050565b6000819050602082019050919050565b6108e18161068d565b82525050565b60006108f383836108d8565b60208301905092915050565b6000602082019050919050565b6000610917826108ac565b61092181856108b7565b935061092c836108c8565b8060005b8381101561095d57815161094488826108e7565b975061094f836108ff565b925050600181019050610930565b5085935050505092915050565b60006020820190508181036000830152610984818461090c565b905092915050565b6000602082840312156109a2576109a1610563565b5b60006109b0848285016107e1565b91505092915050565b600081519050919050565b600082825260208201905092915050565b60005b838110156109f35780820151818401526020810190506109d8565b83811115610a02576000848401525b50505050565b6000610a13826109b9565b610a1d81856109c4565b9350610a2d8185602086016109d5565b610a36816105d0565b840191505092915050565b60006020820190508181036000830152610a5b8184610a08565b905092915050565b600081519050919050565b600082825260208201905092915050565b6000610a8a82610a63565b610a948185610a6e565b9350610aa48185602086016109d5565b610aad816105d0565b840191505092915050565b60006020820190508181036000830152610ad28184610a7f565b905092915050565b600080fd5b600067ffffffffffffffff821115610afa57610af96105e1565b5b610b03826105d0565b9050602081019050919050565b82818337600083830152505050565b6000610b32610b2d84610adf565b610641565b905082815260208101848484011115610b4e57610b4d610ada565b5b610b59848285610b10565b509392505050565b600082601f830112610b7657610b756105cb565b5b8135610b86848260208601610b1f565b91505092915050565b60008060408385031215610ba657610ba5610563565b5b6000610bb4858286016107e1565b925050602083013567ffffffffffffffff811115610bd557610bd4610568565b5b610be185828601610b61565b9150509250929050565b7f4e487b7100000000000000000000000000000000000000000000000000000000600052602260045260246000fd5b60006002820490506001821680610c3257607f821691505b602082108103610c4557610c44610beb565b5b5091905056fea2646970667358221220b76b56e77a1193dcf8a12517ada66009bb26ff7087265fadf3718e05b6b9fbbf64736f6c634300080d0033",
  "immutableReferences": {},
  "source": "// SPDX-License-Identifier: CC-BY-SA-4.0\npragma solidity >= 0.5.0 < 0.9.0;\n\ncontract Guai {\n\n  struct IPFSInfo {\n    string link;\n  }\n  mapping (uint64 => IPFSInfo) AllLinks;\n\n  struct UserInfo {\n    uint[] attributes;\n  }\n  mapping (address => UserInfo) AllUsers;\n\n  struct IPFSInfoTest {\n    bytes32 hashPart1;\n    bytes32 hashPart2;\n  }\n  mapping (uint64 => IPFSInfoTest) AllLinksTest;\n\n  function updateHash(uint64 CaseID, bytes32 _hash1, bytes32 _hash2) public {\n    AllLinksTest[CaseID].hashPart1= _hash1;\n    AllLinksTest[CaseID].hashPart2= _hash2;\n  }\n\n  function getHash(uint64 CaseID) public view returns (bytes memory) {\n    bytes32 p1 = AllLinksTest[CaseID].hashPart1;\n    bytes32 p2 = AllLinksTest[CaseID].hashPart2;\n    bytes memory joined = new bytes(64);\n    assembly {\n      mstore(add(joined, 32), p1)\n      mstore(add(joined, 64), p2)\n    }\n    return joined;\n  }\n\n  function setUserInfo(address Address, uint[] memory _attributes) public {\n    AllUsers[Address].attributes= _attributes;\n  }\n\n  function getUserInfo(address Address) public view returns (uint[] memory) {\n    return AllUsers[Address].attributes;\n  }\n\n  function setIPFSInfo(uint64 CaseID, string memory _link) public {\n    AllLinks[CaseID].link= _link;\n  }\n\n  function getIPFSInfo(uint64 CaseID) public view returns (string memory) {\n    return AllLinks[CaseID].link;\n  }\n\n}\n",
  "sourcePath": "/home/edoardo/Docker/AttributeBasedEncryption/Blockchain/contracts/Guai.sol",
  "compiler": {
    "name": "solc",
    "version": "0.8.13+commit.abaa5c0e.Emscripten.clang"
  },
  "schemaVersion": "3.4.7",
  "updatedAt": "2022-05-25T11:19:06.145Z",
  "networkType": "ethereum",
  "devdoc": {
    "kind": "dev",
    "methods": {},
    "version": 1
  },
  "userdoc": {
    "kind": "user",
    "methods": {},
    "version": 1
  }
}