{
  "contractName": "Plus",
  "abi": [
    {
      "inputs": [
        {
          "internalType": "address",
          "name": "Address",
          "type": "address"
        },
        {
          "internalType": "uint256[]",
          "name": "_attributes",
          "type": "uint256[]"
        }
      ],
      "name": "setUserInfo",
      "outputs": [],
      "stateMutability": "nonpayable",
      "type": "function"
    },
    {
      "inputs": [
        {
          "internalType": "address",
          "name": "Address",
          "type": "address"
        }
      ],
      "name": "getUserInfo",
      "outputs": [
        {
          "internalType": "uint256[]",
          "name": "",
          "type": "uint256[]"
        }
      ],
      "stateMutability": "view",
      "type": "function",
      "constant": true
    },
    {
      "inputs": [
        {
          "internalType": "uint64",
          "name": "CaseID",
          "type": "uint64"
        },
        {
          "internalType": "string",
          "name": "_link",
          "type": "string"
        }
      ],
      "name": "setIPFSInfo",
      "outputs": [],
      "stateMutability": "nonpayable",
      "type": "function"
    },
    {
      "inputs": [
        {
          "internalType": "uint64",
          "name": "CaseID",
          "type": "uint64"
        }
      ],
      "name": "getIPFSInfo",
      "outputs": [
        {
          "internalType": "string",
          "name": "",
          "type": "string"
        }
      ],
      "stateMutability": "view",
      "type": "function",
      "constant": true
    }
  ],
  "bytecode": "0x608060405234801561001057600080fd5b506109df806100206000396000f3fe608060405234801561001057600080fd5b506004361061004c5760003560e01c80632fd0024f146100515780636386c1c71461006d57806388a50c091461009d57806388e6b270146100cd575b600080fd5b61006b600480360381019061006691906105b8565b6100e9565b005b61008760048036038101906100829190610614565b610144565b60405161009491906106ff565b60405180910390f35b6100b760048036038101906100b29190610761565b6101de565b6040516100c49190610816565b60405180910390f35b6100e760048036038101906100e291906108ed565b61028f565b005b80600160008473ffffffffffffffffffffffffffffffffffffffff1673ffffffffffffffffffffffffffffffffffffffff168152602001908152602001600020600001908051906020019061013f9291906102c7565b505050565b6060600160008373ffffffffffffffffffffffffffffffffffffffff1673ffffffffffffffffffffffffffffffffffffffff1681526020019081526020016000206000018054806020026020016040519081016040528092919081815260200182805480156101d257602002820191906000526020600020905b8154815260200190600101908083116101be575b50505050509050919050565b60606000808367ffffffffffffffff168152602001908152602001600020600001805461020a90610978565b80601f016020809104026020016040519081016040528092919081815260200182805461023690610978565b80156102835780601f1061025857610100808354040283529160200191610283565b820191906000526020600020905b81548152906001019060200180831161026657829003601f168201915b50505050509050919050565b806000808467ffffffffffffffff16815260200190815260200160002060000190805190602001906102c2929190610314565b505050565b828054828255906000526020600020908101928215610303579160200282015b828111156103025782518255916020019190600101906102e7565b5b509050610310919061039a565b5090565b82805461032090610978565b90600052602060002090601f0160209004810192826103425760008555610389565b82601f1061035b57805160ff1916838001178555610389565b82800160010185558215610389579182015b8281111561038857825182559160200191906001019061036d565b5b509050610396919061039a565b5090565b5b808211156103b357600081600090555060010161039b565b5090565b6000604051905090565b600080fd5b600080fd5b600073ffffffffffffffffffffffffffffffffffffffff82169050919050565b60006103f6826103cb565b9050919050565b610406816103eb565b811461041157600080fd5b50565b600081359050610423816103fd565b92915050565b600080fd5b6000601f19601f8301169050919050565b7f4e487b7100000000000000000000000000000000000000000000000000000000600052604160045260246000fd5b6104778261042e565b810181811067ffffffffffffffff821117156104965761049561043f565b5b80604052505050565b60006104a96103b7565b90506104b5828261046e565b919050565b600067ffffffffffffffff8211156104d5576104d461043f565b5b602082029050602081019050919050565b600080fd5b6000819050919050565b6104fe816104eb565b811461050957600080fd5b50565b60008135905061051b816104f5565b92915050565b600061053461052f846104ba565b61049f565b90508083825260208201905060208402830185811115610557576105566104e6565b5b835b81811015610580578061056c888261050c565b845260208401935050602081019050610559565b5050509392505050565b600082601f83011261059f5761059e610429565b5b81356105af848260208601610521565b91505092915050565b600080604083850312156105cf576105ce6103c1565b5b60006105dd85828601610414565b925050602083013567ffffffffffffffff8111156105fe576105fd6103c6565b5b61060a8582860161058a565b9150509250929050565b60006020828403121561062a576106296103c1565b5b600061063884828501610414565b91505092915050565b600081519050919050565b600082825260208201905092915050565b6000819050602082019050919050565b610676816104eb565b82525050565b6000610688838361066d565b60208301905092915050565b6000602082019050919050565b60006106ac82610641565b6106b6818561064c565b93506106c18361065d565b8060005b838110156106f25781516106d9888261067c565b97506106e483610694565b9250506001810190506106c5565b5085935050505092915050565b6000602082019050818103600083015261071981846106a1565b905092915050565b600067ffffffffffffffff82169050919050565b61073e81610721565b811461074957600080fd5b50565b60008135905061075b81610735565b92915050565b600060208284031215610777576107766103c1565b5b60006107858482850161074c565b91505092915050565b600081519050919050565b600082825260208201905092915050565b60005b838110156107c85780820151818401526020810190506107ad565b838111156107d7576000848401525b50505050565b60006107e88261078e565b6107f28185610799565b93506108028185602086016107aa565b61080b8161042e565b840191505092915050565b6000602082019050818103600083015261083081846107dd565b905092915050565b600080fd5b600067ffffffffffffffff8211156108585761085761043f565b5b6108618261042e565b9050602081019050919050565b82818337600083830152505050565b600061089061088b8461083d565b61049f565b9050828152602081018484840111156108ac576108ab610838565b5b6108b784828561086e565b509392505050565b600082601f8301126108d4576108d3610429565b5b81356108e484826020860161087d565b91505092915050565b60008060408385031215610904576109036103c1565b5b60006109128582860161074c565b925050602083013567ffffffffffffffff811115610933576109326103c6565b5b61093f858286016108bf565b9150509250929050565b7f4e487b7100000000000000000000000000000000000000000000000000000000600052602260045260246000fd5b6000600282049050600182168061099057607f821691505b6020821081036109a3576109a2610949565b5b5091905056fea2646970667358221220915baa7c7576bac9d4bbd91183dbb942343112875174c7ffb1f21b9e4183e98c64736f6c634300080d0033",
  "immutableReferences": {},
  "source": "// SPDX-License-Identifier: CC-BY-SA-4.0\npragma solidity >= 0.5.0 < 0.9.0;\n\ncontract Plus {\n\n  struct IPFSInfo {\n    string link;\n  }\n  mapping (uint => IPFSInfo) AllLinks;\n\n  struct UserInfo {\n    uint[] attributes;\n  }\n  mapping (address => UserInfo) AllUsers;\n\n  function setUserInfo(address Address, uint[] memory _attributes) public {\n    AllUsers[Address].attributes= _attributes;\n  }\n\n  function getUserInfo(address Address) public view returns (uint[] memory) {\n    return AllUsers[Address].attributes;\n  }\n\n  function setIPFSInfo(uint64 CaseID, string memory _link) public {\n    AllLinks[CaseID].link= _link;\n  }\n\n  function getIPFSInfo(uint64 CaseID) public view returns (string memory) {\n    return AllLinks[CaseID].link;\n  }\n\n}\n",
  "sourcePath": "/home/edoardo/Docker/AttributeBasedEncryption/Blockchain/contracts/Plus.sol",
  "compiler": {
    "name": "solc",
    "version": "0.8.13+commit.abaa5c0e.Emscripten.clang"
  },
  "schemaVersion": "3.4.7",
  "updatedAt": "2022-05-25T11:14:25.475Z",
  "networkType": "ethereum",
  "devdoc": {
    "kind": "dev",
    "methods": {},
    "version": 1
  },
  "userdoc": {
    "kind": "user",
    "methods": {},
    "version": 1
  }
}