{
  "contractName": "Plus",
  "abi": [
    {
      "inputs": [
        {
          "internalType": "address",
          "name": "Address",
          "type": "address"
        },
        {
          "internalType": "uint256[]",
          "name": "_attributes",
          "type": "uint256[]"
        }
      ],
      "name": "setUserInfo",
      "outputs": [],
      "stateMutability": "nonpayable",
      "type": "function"
    },
    {
      "inputs": [
        {
          "internalType": "address",
          "name": "Address",
          "type": "address"
        }
      ],
      "name": "getUserInfo",
      "outputs": [
        {
          "internalType": "uint256[]",
          "name": "",
          "type": "uint256[]"
        }
      ],
      "stateMutability": "view",
      "type": "function",
      "constant": true
    },
    {
      "inputs": [
        {
          "internalType": "uint256",
          "name": "CaseID",
          "type": "uint256"
        },
        {
          "internalType": "string",
          "name": "_link",
          "type": "string"
        }
      ],
      "name": "setIPFSInfo",
      "outputs": [],
      "stateMutability": "nonpayable",
      "type": "function"
    },
    {
      "inputs": [
        {
          "internalType": "uint256",
          "name": "CaseID",
          "type": "uint256"
        }
      ],
      "name": "getIPFSInfo",
      "outputs": [
        {
          "internalType": "string",
          "name": "",
          "type": "string"
        }
      ],
      "stateMutability": "view",
      "type": "function",
      "constant": true
    }
  ],
  "bytecode": "0x608060405234801561001057600080fd5b5061098b806100206000396000f3fe608060405234801561001057600080fd5b506004361061004c5760003560e01c80632fd0024f146100515780636386c1c71461006d5780639c96e0901461009d578063ad72492b146100cd575b600080fd5b61006b600480360381019061006691906105a4565b6100e9565b005b61008760048036038101906100829190610600565b610144565b60405161009491906106eb565b60405180910390f35b6100b760048036038101906100b2919061070d565b6101de565b6040516100c491906107c2565b60405180910390f35b6100e760048036038101906100e29190610899565b610285565b005b80600160008473ffffffffffffffffffffffffffffffffffffffff1673ffffffffffffffffffffffffffffffffffffffff168152602001908152602001600020600001908051906020019061013f9291906102b3565b505050565b6060600160008373ffffffffffffffffffffffffffffffffffffffff1673ffffffffffffffffffffffffffffffffffffffff1681526020019081526020016000206000018054806020026020016040519081016040528092919081815260200182805480156101d257602002820191906000526020600020905b8154815260200190600101908083116101be575b50505050509050919050565b6060600080838152602001908152602001600020600001805461020090610924565b80601f016020809104026020016040519081016040528092919081815260200182805461022c90610924565b80156102795780601f1061024e57610100808354040283529160200191610279565b820191906000526020600020905b81548152906001019060200180831161025c57829003601f168201915b50505050509050919050565b8060008084815260200190815260200160002060000190805190602001906102ae929190610300565b505050565b8280548282559060005260206000209081019282156102ef579160200282015b828111156102ee5782518255916020019190600101906102d3565b5b5090506102fc9190610386565b5090565b82805461030c90610924565b90600052602060002090601f01602090048101928261032e5760008555610375565b82601f1061034757805160ff1916838001178555610375565b82800160010185558215610375579182015b82811115610374578251825591602001919060010190610359565b5b5090506103829190610386565b5090565b5b8082111561039f576000816000905550600101610387565b5090565b6000604051905090565b600080fd5b600080fd5b600073ffffffffffffffffffffffffffffffffffffffff82169050919050565b60006103e2826103b7565b9050919050565b6103f2816103d7565b81146103fd57600080fd5b50565b60008135905061040f816103e9565b92915050565b600080fd5b6000601f19601f8301169050919050565b7f4e487b7100000000000000000000000000000000000000000000000000000000600052604160045260246000fd5b6104638261041a565b810181811067ffffffffffffffff821117156104825761048161042b565b5b80604052505050565b60006104956103a3565b90506104a1828261045a565b919050565b600067ffffffffffffffff8211156104c1576104c061042b565b5b602082029050602081019050919050565b600080fd5b6000819050919050565b6104ea816104d7565b81146104f557600080fd5b50565b600081359050610507816104e1565b92915050565b600061052061051b846104a6565b61048b565b90508083825260208201905060208402830185811115610543576105426104d2565b5b835b8181101561056c578061055888826104f8565b845260208401935050602081019050610545565b5050509392505050565b600082601f83011261058b5761058a610415565b5b813561059b84826020860161050d565b91505092915050565b600080604083850312156105bb576105ba6103ad565b5b60006105c985828601610400565b925050602083013567ffffffffffffffff8111156105ea576105e96103b2565b5b6105f685828601610576565b9150509250929050565b600060208284031215610616576106156103ad565b5b600061062484828501610400565b91505092915050565b600081519050919050565b600082825260208201905092915050565b6000819050602082019050919050565b610662816104d7565b82525050565b60006106748383610659565b60208301905092915050565b6000602082019050919050565b60006106988261062d565b6106a28185610638565b93506106ad83610649565b8060005b838110156106de5781516106c58882610668565b97506106d083610680565b9250506001810190506106b1565b5085935050505092915050565b60006020820190508181036000830152610705818461068d565b905092915050565b600060208284031215610723576107226103ad565b5b6000610731848285016104f8565b91505092915050565b600081519050919050565b600082825260208201905092915050565b60005b83811015610774578082015181840152602081019050610759565b83811115610783576000848401525b50505050565b60006107948261073a565b61079e8185610745565b93506107ae818560208601610756565b6107b78161041a565b840191505092915050565b600060208201905081810360008301526107dc8184610789565b905092915050565b600080fd5b600067ffffffffffffffff8211156108045761080361042b565b5b61080d8261041a565b9050602081019050919050565b82818337600083830152505050565b600061083c610837846107e9565b61048b565b905082815260208101848484011115610858576108576107e4565b5b61086384828561081a565b509392505050565b600082601f8301126108805761087f610415565b5b8135610890848260208601610829565b91505092915050565b600080604083850312156108b0576108af6103ad565b5b60006108be858286016104f8565b925050602083013567ffffffffffffffff8111156108df576108de6103b2565b5b6108eb8582860161086b565b9150509250929050565b7f4e487b7100000000000000000000000000000000000000000000000000000000600052602260045260246000fd5b6000600282049050600182168061093c57607f821691505b60208210810361094f5761094e6108f5565b5b5091905056fea26469706673582212201feddddbd5c2651049e45229aaaf4025d92224fb7dee1f9725ef4e3e2bc8815364736f6c634300080d0033",
  "immutableReferences": {},
  "source": "// SPDX-License-Identifier: CC-BY-SA-4.0\npragma solidity >= 0.5.0 < 0.9.0;\n\ncontract Plus {\n\n  struct IPFSInfo {\n    string link;\n  }\n  mapping (uint => IPFSInfo) AllLinks;\n\n  struct UserInfo {\n    uint[] attributes;\n  }\n  mapping (address => UserInfo) AllUsers;\n\n  function setUserInfo(address Address, uint[] memory _attributes) public {\n    AllUsers[Address].attributes= _attributes;\n  }\n\n  function getUserInfo(address Address) public view returns (uint[] memory) {\n    return AllUsers[Address].attributes;\n  }\n\n  function setIPFSInfo(uint256 CaseID, string memory _link) public {\n    AllLinks[CaseID].link= _link;\n  }\n\n  function getIPFSInfo(uint256 CaseID) public view returns (string memory) {\n    return AllLinks[CaseID].link;\n  }\n\n}\n",
  "sourcePath": "/home/edoardo/Docker/AbstractBasedEncryption/Blockchain/contracts/Plus.sol",
  "compiler": {
    "name": "solc",
    "version": "0.8.13+commit.abaa5c0e.Emscripten.clang"
  },
  "schemaVersion": "3.4.7",
  "updatedAt": "2022-05-19T21:05:37.060Z",
  "networkType": "ethereum",
  "devdoc": {
    "kind": "dev",
    "methods": {},
    "version": 1
  },
  "userdoc": {
    "kind": "user",
    "methods": {},
    "version": 1
  }
}