{
  "contractName": "Plus",
  "abi": [
    {
      "inputs": [
        {
          "internalType": "address",
          "name": "Address",
          "type": "address"
        },
        {
          "internalType": "uint256[]",
          "name": "_attributes",
          "type": "uint256[]"
        }
      ],
      "name": "setUserInfo",
      "outputs": [],
      "stateMutability": "nonpayable",
      "type": "function"
    },
    {
      "inputs": [
        {
          "internalType": "address",
          "name": "Address",
          "type": "address"
        }
      ],
      "name": "getUserInfo",
      "outputs": [
        {
          "internalType": "uint256[]",
          "name": "",
          "type": "uint256[]"
        }
      ],
      "stateMutability": "view",
      "type": "function",
      "constant": true
    }
  ],
  "bytecode": "0x608060405234801561001057600080fd5b50610584806100206000396000f3fe608060405234801561001057600080fd5b50600436106100365760003560e01c80632fd0024f1461003b5780636386c1c714610057575b600080fd5b610055600480360381019061005091906103e5565b610087565b005b610071600480360381019061006c9190610441565b6100e1565b60405161007e919061052c565b60405180910390f35b806000808473ffffffffffffffffffffffffffffffffffffffff1673ffffffffffffffffffffffffffffffffffffffff16815260200190815260200160002060000190805190602001906100dc92919061017a565b505050565b60606000808373ffffffffffffffffffffffffffffffffffffffff1673ffffffffffffffffffffffffffffffffffffffff16815260200190815260200160002060000180548060200260200160405190810160405280929190818152602001828054801561016e57602002820191906000526020600020905b81548152602001906001019080831161015a575b50505050509050919050565b8280548282559060005260206000209081019282156101b6579160200282015b828111156101b557825182559160200191906001019061019a565b5b5090506101c391906101c7565b5090565b5b808211156101e05760008160009055506001016101c8565b5090565b6000604051905090565b600080fd5b600080fd5b600073ffffffffffffffffffffffffffffffffffffffff82169050919050565b6000610223826101f8565b9050919050565b61023381610218565b811461023e57600080fd5b50565b6000813590506102508161022a565b92915050565b600080fd5b6000601f19601f8301169050919050565b7f4e487b7100000000000000000000000000000000000000000000000000000000600052604160045260246000fd5b6102a48261025b565b810181811067ffffffffffffffff821117156102c3576102c261026c565b5b80604052505050565b60006102d66101e4565b90506102e2828261029b565b919050565b600067ffffffffffffffff8211156103025761030161026c565b5b602082029050602081019050919050565b600080fd5b6000819050919050565b61032b81610318565b811461033657600080fd5b50565b60008135905061034881610322565b92915050565b600061036161035c846102e7565b6102cc565b9050808382526020820190506020840283018581111561038457610383610313565b5b835b818110156103ad57806103998882610339565b845260208401935050602081019050610386565b5050509392505050565b600082601f8301126103cc576103cb610256565b5b81356103dc84826020860161034e565b91505092915050565b600080604083850312156103fc576103fb6101ee565b5b600061040a85828601610241565b925050602083013567ffffffffffffffff81111561042b5761042a6101f3565b5b610437858286016103b7565b9150509250929050565b600060208284031215610457576104566101ee565b5b600061046584828501610241565b91505092915050565b600081519050919050565b600082825260208201905092915050565b6000819050602082019050919050565b6104a381610318565b82525050565b60006104b5838361049a565b60208301905092915050565b6000602082019050919050565b60006104d98261046e565b6104e38185610479565b93506104ee8361048a565b8060005b8381101561051f57815161050688826104a9565b9750610511836104c1565b9250506001810190506104f2565b5085935050505092915050565b6000602082019050818103600083015261054681846104ce565b90509291505056fea26469706673582212201932a30135f169061deffa880c0624aa684e96391fe4095d1e147f8047938cc164736f6c634300080d0033",
  "immutableReferences": {},
  "source": "// SPDX-License-Identifier: CC-BY-SA-4.0\npragma solidity >= 0.5.0 < 0.9.0;\n\ncontract Plus {\n\n  struct UserInfo {\n    uint[] attributes;\n  }\n  mapping (address => UserInfo) AllUsers;\n\n  function setUserInfo(address Address, uint[] memory _attributes) public {\n    AllUsers[Address].attributes= _attributes;\n  }\n\n  function getUserInfo(address Address) public view returns (uint[] memory) {\n    return AllUsers[Address].attributes;\n  }\n\n}\n",
  "sourcePath": "/Variante/ABE/Blockchain/contracts/Plus.sol",
  "compiler": {
    "name": "solc",
    "version": "0.8.13+commit.abaa5c0e.Emscripten.clang"
  },
  "schemaVersion": "3.4.7",
  "updatedAt": "2022-05-09T15:40:24.709Z",
  "networkType": "ethereum",
  "devdoc": {
    "kind": "dev",
    "methods": {},
    "version": 1
  },
  "userdoc": {
    "kind": "user",
    "methods": {},
    "version": 1
  }
}